:020000041000EA
:1000000000B5324B212058609868022188439860DF
:10001000D860186158612E4B002199600221596106
:100020000121F02299502B49196001219960352056
:1000300000F044F80222904214D00621196600F024
:1000400034F8196E01211966002018661A6600F04E
:100050002CF8196E196E196E052000F02FF8012189
:100060000842F9D1002199601B49196000215960AB
:100070001A491B48016001219960EB211966A021F2
:10008000196600F012F800219960164914480160C1
:100090000121996001BC002800D000471248134993
:1000A000086003C880F30888084703B5996A0420EC
:1000B0000142FBD001200142F8D103BD02B5186610
:1000C0001866FFF7F2FF186E186E02BD00000240BE
:1000D000000000180000070000035F00212200005C
:1000E000F4000018222000A00001001008ED00E03C
:1000F00000000000000000000000000074B24E7A12
:1001000000200420F7010010C3010010C5010010F9
:10011000C1010010C1010010C1010010C101001097
:10012000C1010010C1010010C1010010C701001081
:10013000C1010010C1010010C9010010CB01001065
:10014000CD010010CD010010CD010010CD01001037
:10015000CD010010CD010010CD010010CD01001027
:10016000CD010010CD010010CD010010CD01001017
:10017000CD010010CD010010CD010010CD01001007
:10018000CD010010CD010010CD010010CD010010F7
:10019000CD010010CD010010CD010010CD010010E7
:1001A000CD010010CD010010CD010010CD010010D7
:1001B000CD010010CD010010CD010010CD010010C7
:1001C00000BE00BE00BE00BE00BE00BEEFF3058054
:1001D000103800BEF2EB8871F424001010250010D6
:1001E0003402001090A31AE700201F49086006C8D7
:1001F00081F3088810471D48006800282FD10DA4FE
:100200000ECC002902D000F012F8F9E71849194A7B
:10021000002000E001C19142FCD1174988471749ED
:1002200088471749884700BEFDE701C901C29A42C5
:10023000FBD3704710250010C00000206C02002086
:10024000BC2600100000042000000420BC26001082
:10025000001004200010042000000000704709482E
:1002600001F0A8FC0047000008ED00E0000000D00D
:1002700070020020440600202D1A001055030010C3
:10028000211B00105756000006005250ABB36053BC
:100290008C24001006005250861C03029C2400107F
:1002A000060052505422A29DAC240010050052506A
:1002B000DE65F468BC260010F8B5C0460448054B5E
:1002C00010B5834203D0044B002B00D0984710BDDB
:1002D0006C0200206C020020000000000648074964
:1002E000091A8B10C90FC91810B5491003D0044B57
:1002F000002B00D0984710BD6C0200206C0200203B
:100300000000000010B5074C2378002B09D1FFF73F
:10031000D5FF054B002B02D0044800E000BF0123AD
:10032000237010BD7003002000000000082400109E
:10033000054B10B5002B03D00449054800E000BF71
:10034000FFF7CCFF10BDC046000000007403002082
:1003500008240010F0B5CE46474680B587B001F0BE
:10036000F3FE4949494801F0F1FE0600484801F012
:10037000CDFE0621102000F099F801230021102263
:100380004248009301F054FF80235B020293F31C68
:10039000F2011B0313433F4A0520134003933E4BD6
:1003A00005933E4B049301F0CBFA01F00BFD3C4961
:1003B00001F0EDFC051C01F02DFD84B20023002CA2
:1003C0000DD0200001F0FEFC011C281C01F0D9FC1E
:1003D0008721C90501F0EFFC01F01CFDC3B22B4DD4
:1003E00024041B02234332000293002102AB2800A5
:1003F00001F076FF01222B68802413432B60FF233A
:100400001B02984664020023FF2799463F044A4690
:100410003A4312026B681E0026402342FAD10320A1
:100420002A6100F08FFD1F4B9C4680235B006744D0
:100430009C46E144C145EAD14A46324312026B6808
:100440001F0027402342FAD103202A6100F07AFDE1
:10045000154B01369C46E144FF2EEDD1FF231B04D2
:1004600099463A00324312026B682342FCD10320C2
:100470002A6100F067FD80235B029C466744013ED1
:100480004F45EED1BFE7C0462024001000002050A9
:1004900008240010FFFFFF9F0040002000000640DE
:1004A0000024F44A0000FFFF00FFFFFF094A830019
:1004B00094464022634410B51C68C0006240C024CA
:1004C00014408022520113431C60034B9C4660443D
:1004D000416010BD04C0014000400140024B18685B
:1004E0008007C00F7047C04600C00640EFF3108081
:1004F00072B6034A1368002BFCD0BFF35F8F7047BE
:100500002C0100D0BFF35F8F0022024B1A6080F3F2
:10051000108870472C0100D0F8B5EFF3108772B641
:100520000E4E3368002BFCD0BFF35F8FCB08C4188E
:100530000725A446C45C01230D40AB4018002040B1
:10054000234208D1624623431370BFF35F8F3060AC
:1005500087F31088F8BD100001F0E6FA2C0100D0F6
:100560000021044B044ABFF35F8F02C39342FAD1C8
:100570007047C046000100D0800100D0044A1078C6
:10058000431CDBB2172B00D9102313707047C046F1
:10059000B001002001238340002904D0034A1360E6
:1005A000034A13607047034A1360FBE780E200E0F0
:1005B00000E100E080E100E0024B10309B68800029
:1005C000C058704700ED00E070B50D00EFF31086E5
:1005D00072B60F4A1368002BFCD0BFF35F8F0D4B30
:1005E00010309B6884001B590B4A934203D09D42F4
:1005F00001D001F0B1FA074B9B681D51BFF35F8F2B
:10060000BFF35F8F0022024B1A6086F3108870BD23
:10061000240100D000ED00E0CD010010F0B5DE4671
:1006200057464E464546E0B50C0083B0EFF31089BF
:1006300072B6594A1368002BFCD0BFF35F8F574B3B
:100640009A68030010339F00D559554A9046954249
:1006500032D0A54243D0534EAA1B2F2A2CD80122B8
:10066000824092465146504A1268114001915146CB
:100670004E4A1160BFF35F8FEFF305829346002A65
:1006800033D101232A009A4393689C4208D178E031
:100690004B005B189B00F3189968A1422AD01A00FE
:1006A000062151560029F3DA019B002B19D052463E
:1006B0003F4B1A603C4B1A60384B9B68DD51BFF3CF
:1006C0005F8FBFF35F8F0022334B1A6089F310886E
:1006D00003B03CBC90469946A246AB46F0BD15001F
:1006E000EAE75246314B1A60E6E79342C9D001F07F
:1006F00033FAC6E706215956002922DB4A00501872
:10070000800034188046A0689860E079D87106208F
:1007100020569871A0797F2824D8A488F01A6405FF
:10072000241544440019E0240005400D2402204310
:10073000988052181F4B9200B6181A781970B2712F
:10074000B2E7594600290FD1FF3191711A499180C2
:1007500018490A789A71194A9B1B5B415A43120D3A
:100760000A70A1E71648E3E7164A1749D21A083A71
:100770005002400D01439980144952080A43DA801F
:1007800092E70621515613000029B7DA5A46002A8B
:10079000EAD14546DCE7C046240100D000ED00E088
:1007A000CD010010B401002000E100E080E100E094
:1007B00080E200E04104002001BDFFFFAAAA000082
:1007C00001BD0000EE01002000F0FFFF00F8FFFF78
:1007D000F0B5EFF3058101240443EFF3108672B600
:1007E000214A1368002BFCD0BFF35F8F1F4B05001D
:1007F0001F4AED1A6D416A43120D1E4D8900AF6804
:1008000052B27F58A7421CD00621595691421CD0A3
:1008100012215956914222D01E215956914220D080
:100820002A2159560324914210D0134B19781A707B
:100830008171BFF35F8F00220B4B1A6086F3108823
:10084000F0BDAB680D4C5C50EFE700246100091966
:1008500089005B18FF21997109499980E5E7012416
:10086000F4E70224F2E7C046240100D0B4010020DE
:10087000AAAA000000ED00E041040020CD01001014
:1008800001BDFFFF054B064A1360064A1360536023
:100890009360D3601361536193617047808080805F
:1008A00000E400E004E400E0024B9C46614489005F
:1008B000016070474000003410B50400FFF75EFE91
:1008C00001002000FFF7F0FFFF232371BFF35F8FCC
:1008D00010BDC04610B50400FFF750FE0100200017
:1008E000FFF7E2FFFF23A380BFF35F8F10BDC04679
:1008F00083680B4810B584466144624409011201C3
:100900009A18591854684B6801209C4201D802D0AB
:100910000020C0B210BD12680B689A42F9D8F7E700
:10092000FFFFFF0F0A4B1968EFF3108072B60A68D9
:10093000002AFCD0BFF35F8F1B68BFF35F8F0022DC
:100940001A6080F3108840BF002000217047C04625
:100950002C040020F8B5574645464E46DE46E0B525
:1009600099460CAB19780DAB1B78050090469A465A
:100970000768002912D1BE7B002E45D074003B6869
:10098000A419033C1B195A783100BA73002A00D10C
:10099000FA7300229A705A701A7003E00E004C002D
:1009A0006418033C2C4B00229C46AB6861449C4677
:1009B0004346090161440B604B464B600A9B8B60C8
:1009C0000B9BCB603B681B199A705A701A707B7B2B
:1009D0009B46002B2CD032005946B8687B6898475C
:1009E0003A68002817D05B4658465B005B441419F0
:1009F000033BA070D118D35C002B00D063705B4622
:100A00000E707B73B34514D030003CBC90469946C1
:100A1000A246AB46F8BD5B465B005B44033BD31884
:100A20009E701119125D002A00D05A705B460B703F
:100A30007E7342464B46287D00F098FB041E06D08C
:100A40005346002B03D13100286800F0DDFD0E9BDA
:100A5000002BD9D01C70D7E7FFFFFF0FF0B5DE46A3
:100A600057464E4645460023E0B58BB00893664B8B
:100A70008200D45800239B46099000F017FB62685F
:100A800006000F00EFF3108572B61368002BFCD040
:100A9000BFF35F8F23689C465B7B9946002B68D031
:100AA000A2685A4B90464B441B01984443461A682F
:100AB0005B6810001900801BB941002963DD0998AB
:100AC00000F054FB0023002298460023069207936F
:100AD00000239A466368BFF35F8F5A461A6085F316
:100AE00010885346002B08D10028C6D10BB03CBC5F
:100AF00090469946A246AB46F0BD089B4146180277
:100B00004B461843D047626806000F00EFF310858C
:100B100072B61368002BFCD0BFF35F8F002F4FDB42
:100B200033003B4302D02369002B60D12368DA7B7A
:100B3000002A07D051008A1819688C464946624439
:100B4000033A51709A7B002A01D14A469A734A4669
:100B5000DA734B46E168013BCA5C0132CA545B461A
:100B600023616368BFF35F8F5A461A6085F310886C
:100B700083E7002300229846002306920793002370
:100B800000209A46A6E7002901D1002897D100212C
:100B9000604600F097FC43461A685B68069207932C
:100BA00043469B689A464346DB689846E3684B4455
:100BB000013B1B7808931B0203432361002089E754
:100BC0002369002BB2D0069A079B921BBB41002BD6
:100BD00015DB594604910121039149460291414692
:100BE0000191514620000091FFF7B4FEB7E700F0F5
:100BF0005DFA32003B0012184B41002BE9DA01226A
:100C0000034B5242E5E7C04618040020FFFFFF0FE8
:100C1000FFFFFF7F10B5144C6368002B04D00A213E
:100C20001248FFF741FE10BD2300114A1021206831
:100C300000F062FB032000F02DFA032000F008FB17
:100C400003200C4900F04CFAFFF798FC0A4B9C4635
:100C500003232375D0231B061B6860446375074B71
:100C600080006060DC60DAE7FC0100202C040020DA
:100C7000F10800105D0A0010400000341804002044
:100C8000F0B557464546DE464E46E0B585B0019381
:100C900010AB1B7800270393002380469A460092EE
:100CA00043465A68EFF3108972B61368002BFCD0E4
:100CB000BFF35F8F43461D68AC7B002C4FD06600AE
:100CC0002B683619033E9B195A78AA73002A00D163
:100CD000EA7342469F705F701F7092684A4B944659
:100CE0000099019AE3181B01634419605A600E9A37
:100CF0009A600F9ADA602B689B199F705F701F7063
:100D00006B7B9B46002B46D022001900A8686B68BD
:100D100098472A68002831D05B4658465B005B4400
:100D20009619033BB070D118D35C002B00D07370C0
:100D30005B460C706B735C452ED04346DB681B1919
:100D4000013B187843465B68BFF35F8F1F6089F3F0
:100D500010885346002B2ED10002204307E05B6829
:100D6000BFF35F8F1C6089F310880120404205B0FB
:100D70003CBC90469946A246AB46F0BD5B465B0044
:100D80005B44033BD3189C709119925D002A00D0FC
:100D90005A705B460B706C734346187D009A019B3A
:100DA00000F0E4F982460028C7D0434621001868C5
:100DB00000F02AFCC1E7039B002B23D00E9B0020F0
:100DC0000F999847030004000D000B431AD0002927
:100DD0000ADA009A019B121BAB4100920193002B8F
:100DE0000ADB039B9A465BE700F060F924184D414B
:100DF00000940195002DF4DA0123044C5B4200932A
:100E00000194EEE70020B2E7FFFFFF0FFFFFFF7F37
:100E100070B542680400EFF3108572B61368002BBA
:100E2000FCD0BFF35F8F2068CAB2437B93420AD0E5
:100E3000FF230B405E00F3180668B4466344033B8F
:100E40009B78002B13D0E668FF23B4460B40634425
:100E5000013B090A1E78C9B28E420DD0002063689A
:100E6000BFF35F8F00221A6085F3108870BD22697E
:100E70008A42F3D12361F1E7110000F0C5FBEEE7F0
:100E8000F0B504000D0006267642F717C64636195F
:100E90006F4100B584B08F4214D811D000F006F92C
:100EA00032003B00121A8B41002B15DC002B3ED088
:100EB0002000290000F004F904B004BC9046F0BD05
:100EC0008642EBD90026002700F0F0F832003B0004
:100ED000121A8B41002BE9DD002302930193154B7D
:100EE0003200009314483B00FFF7CAFE0028DFDB06
:100EF00000239846BC46114A114F7B6A9C4504D892
:100F0000B96A8E42D4D99C45D2D11168EFF31080D2
:100F100072B60B68002BFCD0BFF35F8F1368BFF372
:100F20005F8F4146196080F3108820BFE5E7002AF3
:100F3000BED0D1E725090010FC0100202C040020C0
:100F40000040054070B5060000F0B0F8FA22040039
:100F50000D00002330000021920000F0F5FE001982
:100F60006941002902DBFFF78BFF70BD01200149B9
:100F70004042F8E7FFFFFF7F70B5EFF30583050000
:100F80000C0084B0002B0FD0104B0020596A8C420B
:100F900003D89B6A0130AB4201D304B070BD641A20
:100FA000611E8C41E0B2F8E7094E02930193094BB0
:100FB0000200009330000B00FFF762FE011EE3DD2C
:100FC00020BF3000FFF724FFDEE7C04600400540A9
:100FD000FC01002025090010F0B5EFF30582D6468C
:100FE0004F4646461000C0B51038EFF3108872B671
:100FF000214C2368002BFCD0BFF35F8F0123190025
:1010000081401E4D1F006963AA461D4D29601D4D7C
:101010002E78AC463500C5402F402B4215D05346A4
:10102000194D5F6A83005D59AF4218D3174A8E434A
:101030009B5862461670BFF35F8F0022226088F3D0
:101040001088002B06D0984704E0BFF35F8F27601D
:1010500088F310881CBC90469946A246F0BD0C4B04
:1010600092009C46624413681360BFF35F8F0023B5
:10107000236088F31088EDE7280100D00040054088
:101080003C700540420400203004002094030020FE
:10109000D03F054010B50100024A0348FFF73CFA73
:1010A00010BDC0463024001040040020034B596A94
:1010B0000A00986A596A8A42FAD17047004005408E
:1010C000064A536A9942FCD807D1044B02E05A6A97
:1010D000914202D19A6A8242F9D37047004005409A
:1010E00070B504000D00EFF3108672B61A4A13684B
:1010F000002BFCD0BFF35F8F002D1BD02000FFF72B
:101100005BFA164981420AD02000FFF75DFA0121FF
:101110002000FFF73FFA0123A340114A1360114B4F
:10112000A400E550BFF35F8F00220B4B1A6086F3DB
:10113000108870BD0B4BA200D5500122A2400A4975
:1011400020000B7893430B700449FFF767FA0021E6
:101150002000FFF71FFAE5E7280100D0D90F0010A3
:10116000386005409403002042040020F0B54F464B
:10117000D6464646C0B50700304C616A0D00A66AE7
:10118000616AA942FAD18B4208D805D001201CBC63
:1011900090469946A246F0BDB242F7D9EFF31089C6
:1011A00072B6274801680029FCD0BFF35F8F012584
:1011B0002449BD408C460978204C0E002E438846B9
:1011C000F1B28A46614650460870391D1E488900B2
:1011D00065630A51B9000B50216A0020294219D0D9
:1011E000616A0800A66A616A8142FAD18B4219D805
:1011F00001D1B24216D8C2451DD0104B1F201D622E
:101200005D6301230740BB40104A1E3813606346EC
:1012100042461A70BFF35F8F0022094B1A6089F3B0
:101220001088B4E70020BFF35F8F0022044B1A60E0
:1012300089F31088ABE70120ECE7C0460040054089
:10124000280100D0420400203004002080E200E0A9
:1012500010B5EFF3108472B60A490B68002BFCD06E
:10126000BFF35F8F01238340074A08481362027867
:101270009A430270BFF35F8F00230B6084F31088E2
:1012800010BDC046280100D00040054042040020A7
:1012900070B505000E001400002924D0002A24D0C7
:1012A00080686B689847296800280ED063001B1976
:1012B0007200033B9219CB18033A9E7088188A5C1F
:1012C000002A14D1047030000EE073009B196200F4
:1012D000033B1219CB18033A9C7088188A5C002AC9
:1012E00000D05A700670200070BD0800FCE75A70EC
:1012F00004703000F8E7C04630B583600023CCB2FC
:1013000043730133047342608373C4730D00006838
:10131000012C06D9421C0133DBB2137003329C420C
:10132000F9D1FF2129404B005918002340180338F8
:10133000437030BDF8B5CE46474606000C0080B578
:10134000002907D04D0003686D18033D5A195778DE
:10135000002F04D120000CBC90469946F8BD7900BE
:10136000C919033988464344597889460021597080
:10137000517073683A0021008068984733680028EC
:1013800014D042469A18947059195B5D002B00D016
:1013900053700F70270049463000FFF7CBFF39002C
:1013A00002003000FFF774FF0400D3E742464146D5
:1013B0005D19AF709A185B5C002B00D06B701470D5
:1013C000E9E7C046F0B557464546DE464E46E0B52D
:1013D0000D006B0001685B19DF1E0400C85D83B05F
:1013E0000192CA19002850D043001B18033BCB18A8
:1013F0005E78B446002E1AD1019E002E42D0E67BC4
:10140000002E04D073009B19CB18033B5D70A37BA7
:10141000002B00D1A573E57300282FD10023537052
:1014200003B03CBC90469946A246AB46F0BD720064
:101430006244033A89184A78904600224A709146DD
:101440005A70010032002000FFF722FF4346824617
:10145000002B07D05B0021684344033BCB185A782C
:10146000002A16D1424651462000FFF711FF21689D
:10147000019BCA19002BC2D10028CFD043001B18F2
:10148000033BCB1800219970C8E7019B002BB6D114
:10149000C4E7500080180338091848788346484646
:1014A0004870587041462000FFF7F2FE59468046CA
:1014B0002000FFF73FFF414602002000FFF7E8FE53
:1014C0008046CFE7F0B54E464546DE465746E0B586
:1014D000467B040075000068AD19033D83B001919F
:1014E000415D4219002952D04B005B18033BC318E1
:1014F0005F78BC46002F1CD1019D002D44D0E57BB8
:10150000002D04D06B005B19C318033B5E70A37BF6
:10151000002B00D1A673E673002931D100233000DF
:101520005370617303B03CBC90469946A246AB46EB
:10153000F0BD7A006244033A801842789346002254
:10154000427091465A7020003A00FFF7A1FE5B46B8
:101550008046002B07D05B0021685B44033BCB181F
:101560005A78002A17D15A4641462000FFF790FECC
:10157000019B010020684219002BC0D10029CDD069
:101580004B005B18033BC31800209870C6E7019B13
:10159000002BB4D1C2E750008018033809184878EE
:1015A000824648464870587059462000FFF770FE42
:1015B00053468346002B07D05B0021685344033B0E
:1015C000CB185A78002A06D1594652462000FFF718
:1015D0005FFE8346C7E75000801803380918484665
:1015E0004F784870587051462000FFF751FE39007F
:1015F00081462000FFF79EFE494602002000FFF7CB
:1016000047FE8246E0E7C04670B5040000292CD0B2
:10161000437B8B422ED005684800401803382818B9
:101620008278002A21D053009B18033BEA5CEE1815
:101630008A4202D11BE0002A08D053009B18033BCA
:10164000EB185A788A42F6D142785A700023012268
:10165000837043702000FFF7B5FE617B020020001D
:10166000FFF716FE6073012000E0002070BD437894
:101670003370EBE701221900FFF7A4FE607301202D
:10168000F4E7C04630B50C2083B000F0B3F9FEF7A4
:1016900025FF00280ED0944B944A1A605A609A6035
:1016A000DA601A615A619A61DA611A62904A5A6282
:1016B00003B030BD8F4CA06700F0A4F901228E4B1F
:1016C0001A60636C012BFCD103228C4B1A60894A8F
:1016D000936B012BFCD101330121894A8948009386
:1016E000043300F033F90523874A0093012187482A
:1016F00000F02CF9864B5A68FF2A02D8802252004B
:101700005A608022784C7D4B21691201804D1A600D
:10171000002905D0606900F07BFA01300138FDD165
:10172000E0217B4B02201A681140802252012A439B
:1017300011601968484003210140116004219A6832
:101740001142FCD08022802192012A4309011160BC
:10175000802252005A606F4B23616F4B5968FF29FA
:1017600000D85A6003226C48634B01211A600200C2
:1017700093681942FCD0E02513681D4080235B016B
:1017800003431D6012684A40032111401960022181
:10179000614A93681942FCD0802380219B01034356
:1017A0000901196080215D4B4900516063615C4B08
:1017B0005A68FF2A00D8596080225A4BE169120109
:1017C000574D1A60002905D0606900F021FA0130F8
:1017D0000138FDD1E02252490B681A4080235B0199
:1017E0002B431A60802380229B012B4312011A6035
:1017F00080223E4B52004A60E3614B4B5968FF29FF
:1018000000D85A608022494B216A1201464D1A6065
:10181000002905D0606900F0FBF901300138FDD1E5
:10182000E02241490B681A4080235B012B431A6078
:10183000802380229B012B4312011A608023802287
:101840005B004B60294BD2022362394B59689142AD
:1018500000D25A608022374B616A1201344D1A60FF
:10186000002905D0606900F0D3F901300138FDD1BD
:10187000E0222F490B681A4080235B012B431A603A
:10188000802380229B012B4312011A608023DB02FC
:101890004B60174B6362284B5A68FF2A02D880229C
:1018A00052005A608022254BA1691201224D1A6014
:1018B000002905D0606900F0ABF901300138FDD195
:1018C000E0221D490B681A4080235B012B431A60FC
:1018D000802380229B012B4312011A6080235B002E
:1018E0004B600E4BA361E3E6A4030020006CDC0216
:1018F0001BB70000008000403CB0004030B000400A
:10190000002F685900800240008C864700C00240CA
:1019100030800040001BB7003C80004040597307F6
:101920005480004054B000406080004060B00040EF
:101930006C8000406CB000404880004048B00040DF
:10194000014B8000C0587047A4030020F8B5040084
:101950000C2017001D000E0000F05AF94101091A71
:101960008B01591AC90009188901380000F050F993
:10197000069A2B04120313432268002A21DB194A1A
:10198000A21851424A41802149018C4652420A40E4
:10199000154962440A6015490A60154917008D68A7
:1019A000AF43FBD1C021221D8901114321222660B2
:1019B000A0600A602268002AFCDAE36008230B605A
:1019C000F8BD3F2221680A40B242D8D1A268120570
:1019D000120D8242D3D1EE21E268C9020A409A4236
:1019E000CDD1EDE70040FDBF00E0004000F0004039
:1019F00000C000408023024A9B000343D36270472B
:101A000000800540AA23064A1B0113602F230549C5
:101A1000D360054B19605368002BFCDA7047C04651
:101A20000040024000B0FA00006002402C4B2D4AFA
:101A300070B51A602C4A2D4B2D491A6010008B6826
:101A40009843FBD12B4C2C4B9C4209D2013B1D1BD4
:101A5000AD080135AD002D1908CC9847AC42FBD13B
:101A6000FFF710FE254A214B1A60214A9368DB01DB
:101A70008033FBD14022224B224C234D9A675A6778
:101A80001A67DA66AC4208D223682000002B21D006
:101A90000834FEF71FFFAC42F6D31C4C1C4DA16866
:101AA000C022280000F00CFAA560FEF759FDFEF7F1
:101AB000E9FEFFF7AFF8174C174B9C4209D2013BE8
:101AC0001D1BAD080135AD002D1908CC9847A54266
:101AD000FBD170BD0834FEF7EFFEAC42D4D3DCE797
:101AE00000E00040BFCDFBFEFE7F3C0000F0004068
:101AF00000C000405802002068020020FFFFFF01E4
:101B000000F00140500200205802002000ED00E0EB
:101B100000000020680200206C02002000BEFDE7EB
:101B200010B5FFF7FBFFC0460FB400B5084883B0FF
:101B300000F0ECFA049B002B07D005A918000191D6
:101B400000F018F8034800F0E1FA0120FFF7E6FF83
:101B5000542400106424001010B50148FFF7E4FF7E
:101B60006824001010B5002800D110BD00F082FAE2
:101B7000FBE7C04610B5094A0300146884B0002C86
:101B800008D0012200910648524203A9A047012033
:101B900004B010BD00F0BAFA0020F9E714040020E8
:101BA000651B001001480421014B1847300200203A
:101BB000D51B0010142310B50100188804331B88AE
:101BC000984710BD162310B50100188802331B88F2
:101BD000984710BDF0B5C64600B5002916D01423AD
:101BE00004000125984618278900461843462168B5
:101BF00018883B88984701C4431E984140420540DD
:101C0000A642F3D1280004BC9046F0BD0125F9E7B7
:101C1000114A936F9B0813D210665166002905D0B4
:101C2000FFE7FFE7FFE7516F106F704704B500282B
:101C300001D00020C04300F0D7FB002104BDC04606
:101C4000F0B5146E556E576F166FFFF7E5FF14660B
:101C5000556657671667F0BD000000D0132370B5B6
:101C60001D78012D15D010DD2748FFF7ABFF274C5D
:101C700001008022200000F023F9022D06D0244824
:101C8000FFF798FF234B186070BD204C224AA264D6
:101C9000F5E72E001D4C204AA3085B421E401D4262
:101CA0002FD0330022602020B1006118801B0A6011
:101CB0004A608A60CA600A614A618A61CA610A62CE
:101CC0004A628A62CA620A634A638A63CA630A64AE
:101CD0004A648A64CA640A654A658A65CA650A668E
:101CE0004A668A66CA660A674A674008102803D1AE
:101CF0008A67CA67A264C2E71E339B00E250A264EF
:101D0000BDE70023CFE7C046534400004404002051
:101D10004C330000280400201D1D001007B560464C
:101D200001880A0A0230DF2AFAD1C9B2820804D334
:101D3000028840880004104300E00068014A5050C7
:101D4000039007BD4404002051434343C9188C4607
:101D5000110C83B24B4310B4040C614392B280B2B5
:101D6000504362431C041B0C001910BC594113045E
:101D7000120CC01851416144704700004840414076
:101D800048400E4B5B6818470C4B1B6818470C4AC1
:101D9000936F9B0802D2094BDB681847F0B5146EAD
:101DA000556E576F166FFFF7F6FF054A14665566B6
:101DB00057671667F0BD014B9B6818474405002024
:101DC000000000D0491A002808D1084670470000DA
:101DD000C10FC90700D54042002817D0F44603B40C
:101DE0000B4B1B68984706BC81409E3840428031AF
:101DF00007D20B0607D04900490AC0051043084323
:101E000060470130F8E7490A8902F5E770470000AA
:101E100028040020014B5B6A18470000440500209D
:101E2000132310B512481C78FFF7CCFE0100012CDB
:101E30000AD003DD80220F4800F042F80E48FFF779
:101E4000B9FE0E4B186010BD0A4C5422200000F061
:101E500037F80B4B6365A365E36523666366A3668A
:101E6000E36623676367A367E3672362E361E5E7EC
:101E700053460000440500204C3300002804002095
:101E8000851E001007B5604601880A0A0230DF2A65
:101E9000FAD1C9B2820804D30288408800041043F2
:101EA00000E00068014A5050039007BD440500203F
:101EB00001480421014B184740020020D51B0010A7
:101EC000014B5B681847000040020020030010B57A
:101ED00008001B681100984710BDC046F8B547467A
:101EE000CE4680B5437D07000D001600002B37D08D
:101EF00000240020002A1EDD4B1E98461B4B9946ED
:101F0000002C2BD043461B5D0D3B5A425341DBB2A4
:101F10002A5D0A2A13D00134A642F1DC864203DD91
:101F2000311A3B6828189847AD19013D2B780D3BB5
:101F30005A4253413B750CBC90469946F8BD002B64
:101F4000E9D1A04203DA211A3B682818984748468D
:101F500002213B68013498472000DDE73B7DD7E74D
:101F60000368110028009847E5E7C046DC2400100C
:101F7000F0B5DE4657464E464546E0B585B01700FB
:101F80001C0006000D00FFF791F80023324A1218DA
:101F90004B41002B5BDB314908008A4600F02CFAEC
:101FA00001906B1C03D1300000F0E0F90500002C1B
:101FB00028D12B4B98462B4B1C68002C15D0002F9A
:101FC00023D1294F02E02469002C0ED02368002B76
:101FD000F9D03B68002B01D0A342F4D120002A00A5
:101FE0003100C0472469002CF0D1019B002B2AD17D
:101FF000681E8541E8B205B03CBC90469946A246B1
:10200000AB46F0BD194B9846D5E7174B994602AB46
:10201000DF1D0A239B4602E02469002CE5D02368DB
:10202000002BF9D04B461B68002B01D0A342F3D103
:102030002A0031002000C0475B4601223900200001
:102040003B70C047E8E7504600F0C6F9D0E70122F0
:10205000074B52429FE7C04640420F00500200200B
:10206000DD1E00100C04002010040020CD1E001006
:10207000FFFFFF7FF0B5CE46474680B583B06B4685
:102080000500DE1D3070FFF711F800231A4A121800
:102090004B41002B2CDB19490800884600F0ACF9B5
:1020A000174B07001C68002C16D0164B994602E00F
:1020B0002469002C10D02368002BF9D04B461B68F4
:1020C000002B01D0A342F3D1200001223100FFF701
:1020D00005FF2469002CEED1002F05D1280003B0A4
:1020E0000CBC90469946F0BD404600F075F9F5E706
:1020F0000122054B5242CEE740420F005002002021
:102100000C04002010040020FFFFFF7F70B50400C6
:1021100000F02CF900230100050001222000FFF748
:1021200027FF084B1C68002C06D06368002B05D0E5
:1021300098472469002CF8D1280070BD2469002C30
:10214000F3D1F9E70C04002000207047F0B5DE461B
:10215000454657464E46E0B5060083B00D00FEF7F3
:10216000C5F9304B2F79F1184B4259412E4B0524BC
:1021700098468B009B4643465A469B5820229C46D5
:102180000123BB4001902C57013BD21B002C32DBBA
:10219000944243DCA34062461A423FD19946002F45
:1021A00018D06B782A781B021A43AB781B041343B0
:1021B000EA7812061A439246002351465A008D5A75
:1021C0006A0B00D12D191A19123292000133955160
:1021D0009F42F2D863464A46594613434246019805
:1021E0005350FEF78FF9200003B03CBC904699464F
:1021F000A246AB46F0BD002A10DB190060469140B4
:1022000014008946014207D1C9E718006146904091
:10221000140081460842C2D0013AF6D20348FFF7C3
:1022200083FCC0460000D0AF8C030020E0240010E7
:10223000F0B557464E464546DE468946E0B583B082
:102240000CA90D784946490088464944C9004618FA
:1022500037003400DC3701903868CC34834620687E
:10226000C02482460198CC318446A40161442143B4
:102270008024A4020C60691E8D411F216D420D4017
:1022800016498C466544052B0ED9A02149058C467C
:102290001F21D8366046540104430532053B3C609B
:1022A0000A403560052BF5D841469B0652011A437A
:1022B0004944019BC90058180300DC331A6002002E
:1022C000D83215605A461A605346CC30036003B0CA
:1022D0003CBC90469946A246AB46F0BD80E000006B
:1022E000F0B501258D400468AC434D0004606C18C6
:1022F000E40004192600C836002B28D01F68DC34FF
:1023000037605F6877609F68DB68B76023606B1831
:10231000DB001D008024D035451964012C43802545
:102320002D062560256001250F4C2E008C40846011
:102330000C1DA640802408318D401F21A4010443B8
:10234000C0180A40D830266025600260F0BD8027A2
:102350007F023760F8277F027760C027DC343F03B5
:10236000B7602360D3E7C0460101010110B58307C0
:1023700027D00378002B26D00300032102E01A782F
:10238000002A1CD001330B42F9D119680F4A104CB6
:102390008A188A4322420FD1043319680B4A8A18DB
:1023A0008A43224208D104331968084A8A188A43AA
:1023B0002242F1D000E001331A78002AFBD1181A2A
:1023C00010BD0300E1E70020FAE7C046FFFEFEFE75
:1023D00080808080F8B5C04601B40248844601BCC4
:1023E000604700BF7101002001B40248844601BC6F
:1023F000604700BF9901002001B40248844601BC37
:08240000604700BFC10000208D
:102408005250323034302D5A65726F20575332385B
:1024180031322054657374002824001004FF000032
:1024280021622311001442A44861726477617265C5
:1024380020616C61726D20256420616C7265616435
:102448007920636C61696D65640000000A2A2A2A94
:102458002050414E4943202A2A2A0A000A00000037
:1024680048617264206173736572740052656C65AB
:1024780061736500626F6F74325F7732357130381F
:1024880030000000312E352E300000007069636F77
:10249800000000007270323034305F70726F6A650D
:1024A800637400004D6172203239203230323300BB
:1024B80006005250BBFF3CB6942400100600525050
:1024C800E182887F7C24001006005250D3F07542C8
:1024D800742400100D0A00004E6F2070726F67722E
:0C24E800616D20737061636500000000EE
:1024F400AC020010A002001094020010B8240010D6
:0C25040088020010C4240010D024001035
:10251000F0B5C646150000B504001E000268EFF3D2
:10252000108172B61368002BFCD0BFF35F8F0423B9
:10253000E356002B36DB2268BFF35F8F002010606C
:1025400081F31088D02200271206D7579F4203D16B
:10255000002004BC9046F0BD002398460CE02268A1
:10256000BFF35F8F4146116083F31088280031006C
:1025700000F03EF80028EBD12268EFF3108372B62A
:1025800011680029FCD0BFF35F8F22797F2AE6D93A
:1025900022682771BFF35F8F0021116083F31088D9
:1025A0000120D6E7D0231B061B6823712368BFF3E5
:1025B0005F8F00221A6081F310880120C9E7C046AE
:1025C0000268EFF3108172B61368002BFCD0BFF3E2
:1025D0005F8FFF2303710368BFF35F8F00221A60D0
:1025E00081F3108840BF70477047C046000000006C
:1025F00001B40248844601BC604700BF790F001057
:1026000010000000000000000000010000000000B9
:1026100000000000000002000000000000000000B8
:102620000000030000000000000000000000FF00A8
:102630000000000001B5486801318E460047704631
:1026400009380149884701BDD10700101402002054
:102650000000000070020020CC03002000000000F9
:1026600000000000DC03002000000000000000006B
:10267000100000000000000000000000000000004A
:10268000503300004C33000054330000523300003C
:102690004D5300004D43000053340000433400000C
:1026A0000000000000000000B11E0010A51B00107B
:0C26B0005D1C0010211E00103103001002
:04000005100001E9FD
:00000001FF
